:020000041000EA
:1000000000B5324B212058609868022188439860DF
:10001000D860186158612E4B002199600221596106
:100020000121F02299502B49196001219960352056
:1000300000F044F80222904214D00621196600F024
:1000400034F8196E01211966002018661A6600F04E
:100050002CF8196E196E196E052000F02FF8012189
:100060000842F9D1002199601B49196000215960AB
:100070001A491B48016001219960EB211966A021F2
:10008000196600F012F800219960164914480160C1
:100090000121996001BC002800D000471248134993
:1000A000086003C880F30888084703B5996A0420EC
:1000B0000142FBD001200142F8D103BD02B5186610
:1000C0001866FFF7F2FF186E186E02BD00000240BE
:1000D000000000180000070000035F00212200005C
:1000E000F4000018222000A00001001008ED00E03C
:1000F00000000000000000000000000074B24E7A12
:1001000000200420F7010010C3010010C5010010F9
:10011000C1010010C1010010C1010010C101001097
:10012000C1010010C1010010C1010010C701001081
:10013000C1010010C1010010C9010010CB01001065
:10014000CD010010CD010010CD010010CD01001037
:10015000CD010010CD010010CD010010CD01001027
:10016000CD010010CD010010CD010010CD01001017
:10017000CD010010CD010010CD010010CD01001007
:10018000CD010010CD010010CD010010CD010010F7
:10019000CD010010CD010010CD010010CD010010E7
:1001A000CD010010CD010010CD010010CD010010D7
:1001B000CD010010CD010010CD010010CD010010C7
:1001C00000BE00BE00BE00BE00BE00BE00F04BF888
:1001D000103800BEF2EB8871C85B0010E45B0010C1
:1001E0003402001090A31AE700202149086006C8D5
:1001F00081F3088810471F48006800282FD10DA4FC
:100200000ECC002902D000F012F8F9E71A491B4A77
:10021000002000E001C19142FCD1194988471949E9
:1002200088471949884700BEFDE701C901C29A42C3
:10023000FBD37047E45B0010C0000020484B002057
:100240006CA6001000000420000004206CA6001022
:1002500000100420001004200000000070470B482C
:1002600003F0BAF80047EFF30580C0B27047000012
:1002700008ED00E0000000D0484B002004C500203D
:10028000CD29001091050010012B001057560000D9
:1002900006005250ABB36053805B00100600525012
:1002A000861C0302905B0010060052505422A29D4F
:1002B0009C5B001005005250DE65F4686CA60010CF
:1002C000F8B5C0460448054B10B5834203D0044B33
:1002D000002B00D0984710BD484B0020484B002011
:1002E0000000000006480749091A8910CB0F591869
:1002F00010B5491003D0044B002B00D0984710BD17
:10030000484B0020484B00200000000010B5074C6F
:100310002378002B09D1FFF7D5FF054B002B02D026
:10032000044800E000BF0123237010BD604C002092
:1003300000000000305A0010054B10B5002B03D010
:100340000449054800E000BFFFF7CCFF10BDC046E0
:1003500000000000644C0020305A001070B580236B
:1003600080220021002000F017FC0E4800F02EFC37
:100370000D4A4021802000F075FC00F05DFC0B4828
:100380000B4B0200190031C931C231C931C211C948
:1003900011C208490A0013CB13C213CB13C203CBFB
:1003A00003C270BD2108001024020020C0C100203B
:1003B00000C2002020C200207047C0467047C046DF
:1003C00010B50F2300220021002000F03BFC6E4CF2
:1003D0000F23208053222B211D2000F033FC0F23FC
:1003E0006080532225217E2000F02CFC0F23A0806A
:1003F00051228721002000F025FC0F23E0803622C7
:100400005221AB2000F01EFC0F2320814F225721E8
:100410005F2000F017FC0F236081C722C321C22098
:1004200000F010FC0F23A081E822F121FF2000F052
:1004300009FC0F23E0814D220021FF2000F002FC87
:100440000F2320820022A321FF2000F0FBFB0F23BB
:1004500060822722EC21FF2000F0F4FB0F23A08212
:100460003622E421002000F0EDFB0F23E082FF2282
:10047000AD21292000F0E6FB0F2320839C2276216A
:10048000832000F0DFFB0F236083A8227721FF2069
:1004900000F0D8FB0123A083AA22CC21FF2000F08A
:1004A000D1FB0F23E08314221821292000F0CAFB7E
:1004B000364C0F23208035221D21112000F0C2FB75
:1004C0000F23608036222121422000F0BBFB0F2346
:1004D000A08059225321122000F0B4FB0F23E080AA
:1004E00029222F21742000F0ADFB0F2320813B2215
:1004F0003321492000F0A6FB0F2360817922882157
:10050000A22000F09FFB0F23A0817D22EF21F3208A
:1005100000F098FB0F23E08150221221BE2000F052
:1005200091FB0F23208224226C21FF2000F08AFB04
:100530000F2360822E22E721A82000F083FB0F23E7
:10054000A0824322B521002000F07CFB0F23E08233
:10055000B5225A21062000F075FB0F232083652267
:100560004621752000F06EFB0F23608359226E2117
:10057000FF2000F067FB0F23A08381229D21FF2035
:1005800000F060FBE08310BD00C20020E0C100204D
:10059000F0B5DE464E4645465746E0B5802683B068
:1005A00000F03CFD002400F021FD7600494D0020C4
:1005B0000BE0200003F0D0FEEE21890503F095FE4C
:1005C000454903F092FE03F037FF013401C5B44200
:1005D000EFD1002000F082FC00F0CCFB00F0C4FB67
:1005E0000028FBD100F0B0FB00F0AEFB4B2000F088
:1005F00075FCFFF7B3FE00F0F5FC384B384F9B4617
:100600001860002399464E4600F09AFB050000F062
:1006100099FA00F0A3FA00F0A7FA00F0CFFA00F080
:10062000DBFA00F0F5FA00F0FDFA5A462D4B12689D
:100630001A6000F0D7FC5B46186000F081FB731C69
:10064000040030009A46FFF7B7FE00F079FB001B6C
:10065000F86000F075FB804600F086FB0028FBD1B7
:1006600000F06EFB4B46C01A786100F069FB040095
:1006700000F066FB81465046FFF7A0FE00F060FBED
:100680004B46C01A386100F05BFB019000F05CFB48
:1006900000F056FB824600F053FB814600F06AFBF7
:1006A00000F04EFB451BBD6029000F4802F0C2FE62
:1006B000431C02363B600020282B09D94346544492
:1006C000E01A019B2900C01A6423584302F0B2FECD
:1006D000786099E7ACBD0020DB0FC94048BD002021
:1006E00068BD00205CBD00203F420F0010B5054AE8
:1006F0007821782000F0B6FA034B1860034B18609D
:1007000010BDC046C84C002080BD0020C44C002055
:100710008446F0B508004E4691460A1461464546A7
:100720005746DE465200545AE0B5384926030E407B
:10073000374A2643374C1640247835032D0F65433E
:100740000F35A0462C112D06ED0F64194D46099F5B
:10075000E4B2002D3AD00125AA463D002DE01D88C7
:100760004844AB465F462D030D403D4310273F1BD9
:100770007443274E1540B3467D435C442C19264DE7
:1007800026092E40254D240C2C40654634431C8000
:1007900004146400645B574626030E402643FF247E
:1007A0001640350C2540444665430F352C11ED119C
:1007B0003D406419099D0233E4B2013D0995CED252
:1007C0003CBC90469946A246AB46F0BD10486643F5
:1007D000844610209146114A664490460E4A041BF6
:1007E000944610E04A461D882803084028431040DC
:1007F000424660438019050C1540624600091040CE
:10080000284318800233013FECD2D9E700000F0FD4
:100810000F0F0F0F244200200F0F0000F0F0000018
:1008200070B5049C651E002C0AD0F0260C146400E0
:10083000245A264200D01C8002338918013DF5D28B
:1008400070BDC046F0B557464E464546DE46E0B55B
:10085000524D06006B6983B09B46514B00201F68C8
:10086000AB69BA46DA449846D146C144B1451FD96E
:10087000296A002903D0300002F0DCFD761A494BCA
:10088000AC681B6800933B00A7422AD89E4216D250
:100890002100300202F0CEFD009C4443240AEB69A3
:1008A000002B3AD14346002B01D0464562D8E0B236
:1008B00003B03CBC90469946A246AB46F0BDEB68FF
:1008C00001931B19BB4239D89E420ED3B74239D986
:1008D0002B696421180202F0ADFD009C4443240AF8
:1008E000DDE723009E42EAD2D2E72B696421180299
:1008F000802702F09FFD7F003B1A9A46301B0002C2
:10090000019902F097FD54464443009B240A3C1B86
:1009100063431C0AEB69002BC4D004F0BFFEEF69EF
:10092000390002F087FD7F08AB69C91B9846611842
:100930001ED464246429B5DC0C00B3E73B009E425E
:10094000C4D2D2E70024B245A9D9F01B594600020F
:1009500002F070FD01342B69FF34241A642118025F
:1009600002F068FD4443009B240A63431C0A96E797
:10097000002497E7F01AFFF765FF050020004946BD
:10098000704302F057FD4B460400981B68434946EC
:1009900002F050FD0019C0B28AE7C04684BD0020B5
:1009A000A8BD002034420020F0B557464E464546CB
:1009B000DE46E0B55D4C5E4F266885B03D68002E92
:1009C0005CD05C4B61689946002908D0280002F091
:1009D00031FD594B464318684B4636181E606B1C58
:1009E00062693B60A7699346BA46544B02921E68FF
:1009F0000021B344DA44AA4522D9216A002903D050
:100A0000280002F017FD6D1A4D4B1B680193A36877
:100A10009846330046452DD8AB421CD928024146A2
:100A200002F008FD019B43431B0A9846E369002B33
:100A30003FD1002F01D0BD4264D8FF214346194069
:100A40004B46186800F06EFA05B03CBC90469946DB
:100A5000A246AB46F0BDE36803934344B34224D8B7
:100A60009D420ED3AE4236D923696421180202F0AA
:100A7000E1FCD7E74346AB42EDD9CFE72D4B994692
:100A8000ADE7236964211802802602F0D3FC7600CA
:100A9000331A9B464346E81A0002039902F0CAFC47
:100AA0005B465843000A301ABCE733009D42D9D256
:100AB000E7E704F0F3FDE669310002F0BBFC4346D2
:100AC0007608891BA769C91819D464239846642934
:100AD000AFDC8846ADE700239846AB45A6D9A81BF6
:100AE00002990002802602F0A5FC23697600361ADE
:100AF0006421180202F09EFC7043000A92E7002372
:100B0000984696E7E81BFFF79DFE040040465146D5
:100B1000684302F08FFC53460600581B5146604361
:100B200002F088FCFF218019014089E784BD002084
:100B30004CBD0020B04C0020B84C0020A8BD0020C7
:100B40003442002010B50F230F220F210F2000F098
:100B500079F8014B188010BDF4C200200F22014B20
:100B60001A707047244200200023064A1360064A88
:100B70001360064B064A1B68196811605A68054BDA
:100B80001A607047BC4C0020C04C0020C44C0020B0
:100B9000304200202C42002010B5044C2060044854
:100BA000016004490A60044A136010BDBC4C002077
:100BB000C04C0020304200202C420020014B024A51
:100BC0001A6070472842002011070010014B18607E
:100BD0007047C04628420020074B084A1B68084956
:100BE000136000220A6007490A601968064A11600A
:100BF0005A68064B1A60704780BD0020C44C002024
:100C0000BC4C0020C04C0020304200202C42002070
:100C10000023024A1360024A1360704760BD00203F
:100C200064BD00200023024A1360024A136070472B
:100C300054BD002058BD0020014B18607047C046CD
:100C400050BD002010B5F0241202240122400F24D0
:100C500020401043090308431901FF230B401843A8
:100C600080B210BDF8B507000C200D00160003F08F
:100C7000D5FE00230400836007604560002E02D08B
:100C8000A6602000F8BD7D43044B68009D4201D959
:100C90000120404203F0C6FE0600F1E7FCFFFF3FE3
:100CA00010B5FFF781FE012010BDC046A0221E4BEB
:100CB000D205D25801231D4910B50868834013425C
:100CC0000ED01B4A13601B4A138801331BB21380DA
:100CD000782B06DD01235B4213800022164B1A702D
:100CE00010BD164B1B68986813881BB2002B06DDDD
:100CF00013881BB2013B1C01E31A1B01C0181388A7
:100D00003C24002B07D013881BB2783B5A1E93411A
:100D10005B421C403C34A022D20594460B689B01E8
:100D200063441860DC61DBE70C040000B44C002075
:100D30000C2400503C420020F6C2002080BD002060
:100D400010B501F061FA10BDD021802209065200D1
:100D50004B681342FCD1D0218022090652004B6817
:100D60001342FCD07047C046014B18787047C0460C
:100D7000F6C20020164A1378002B00D070470121DC
:100D80001170144A1380144B1B68996813881BB2A6
:100D9000002B06DD13881BB2013B1801C31A1B018F
:100DA000C91813883C20002B07D013881BB2783B4E
:100DB0005A1E93415B4218403C30A022D205944613
:100DC000064B1B689B0163441960D861D6E7C04697
:100DD000F6C200203C42002080BD0020B44C002020
:100DE000F0B5CE46474680B5344B87B004000D00C1
:100DF00018683349984603F047FF80235B0202934B
:100E0000C0231B030493030080261233C2011B037B
:100E100013432C4AF6051340334303930123070081
:100E2000994600932900200001330722059604F01B
:100E300027F8254B049A0293244B2900134004936E
:100E4000234A059B20001A40224B1343059300229E
:100E5000C02303F08FFF29002000C023C02203F02D
:100E6000CBFF049B1C4A9B009B081E4343469446B1
:100E70001B680720634419004B1E994106310496F4
:100E800000F096FC43461968134B06209C466144CB
:100E90004B1E9941063100F08BFC02AB3A00290051
:100EA000200004F031F84B46AB4022681343236026
:100EB00007B00CBC90469946F0BDC04638420020B1
:100EC000445A0010FFFFFF9F00010200FFFFF5C121
:100ED000E0830FFC071810000000E0AF10B503F02E
:100EE0003BFA0B4903F0EDF90A4903F0D3FB0A4B37
:100EF0000A491C6803F0F9F9FC21890503F0DEF9C1
:100F000003F084FA6040064B0004000C186010BD2A
:100F10000000C842333333408400054000FF7F4760
:100F200084100540F0B5C646264B00B51E68050086
:100F300030000F0003F010FA011C234803F0C1F940
:100F4000041C280003F008FA011C201C03F0B9F966
:100F5000804603F05BFAC4B2200003F003FA011CE0
:100F6000404603F0A8F98321C90503F0BEF903F058
:100F70004DFA2401154A3304C0B21B0C0443946695
:100F80003800536703F0E8F9114903F09AF9114961
:100F900003F080FB071C28000F4B70430F491C68AF
:100FA00002F048FA03F0D8F9391C03F09EF903F077
:100FB0002DFA000460400A4B000C0004186004BCC9
:100FC0009046F0BD40420020286B6E4D0000054069
:100FD0000000C8426666E63F70000540102700002A
:100FE00070100540D0231B065868704700B585B0C7
:100FF00000F08CFE064B074A029300230193064B38
:10100000009301235B4200F085FE05B000BDC046A1
:10101000484B002018FCFFFFA10C0010F0B5DE4685
:1010200057464E464546002288218024E0B51A4B9B
:101030001A4889B058509A671A5104341A5110321C
:101040005850DA670F3A84399A670C2000F0B0FBE9
:10105000134B144A1B680D201B041B0C136002F079
:1010600065F90A2001F050F807AB06AA05A90E4859
:1010700000F0E6FA002803D10B490C4801F042FDCC
:10108000079A0699059800F09FFAD0231B060024C2
:101090000126172798460EE000000540FFFF0000DC
:1010A000840005408410054090D00300745A00105D
:1010B0000134202C13D03500A5402F42F8D0052153
:1010C000280000F075FB33004246AB4001219362DB
:1010D00028000022013400F083FB202CEBD1D02328
:1010E0001B060126022798461F3C3500A5402F42CB
:1010F00008D00521280000F05BFB33004246AB40DE
:10110000536293610134202CEFD103F0BBFF1F2108
:101110001A2000F04DFB002200211A2000F060FB95
:1011200000211A2000F076FB9C239B46FC4BFD4DD2
:1011300098465B4642460026EA5040469822594669
:10114000103BEE509A460833EE50AE5068500120E6
:10115000814610274B4650460C396F502B508C3926
:101160007E3800F025FB882340468022E850AE6799
:10117000AE500432AE50E8504846EF670421A867ED
:101180000C3000F015FB4346584698222B50504631
:1011900094232E50EE505B46AE5042469021EA50CA
:1011A0004A466F502A50D0258C397D3800F000FB1C
:1011B000DD49DE482D0603F0EFFE0521042000F096
:1011C000F7FA6F626420AF6100F09EFF6F61F13744
:1011D000FF370521092000F0EBFA6F620521052099
:1011E00000F0E6FA6C620121062000F0E1FA01212C
:1011F000072000F0DDFA6B46591D4B466C61012259
:101200000B70CA48AC61AF6104F002FC6C61052050
:1012100000F07AFF36236A4607A91377C348AC610A
:101220000122AF6104F0F4FB6F610122C049BF48A5
:1012300004F0EEFB35236A466C6106A91376BB48C1
:10124000AC610122AF6104F0E3FBBA4B6F6119009E
:101250000122B648984604F0DBFBB2236A466C6173
:1012600005A91375B148AC610122AF6104F0D0FB50
:1012700043466F61191D0522AC4804F0C9FB1321D8
:101280003A2369446C6101220B70A848AC61AF61DC
:1012900004F0BEFB6F610122A749A44804F0B8FB2B
:1012A0001221262369446C6101220B709F48AC61B6
:1012B000AF6104F0ADFBA14B6F61190001229B48A7
:1012C000994604F0A5FB1121B72369446C61012202
:1012D0000B709648AC61AF6104F09AFB6F6101221C
:1012E0009749924804F094FBBB2304A96C61012246
:1012F0000B708E48AC61AF6104F08AFB6F61012214
:1013000090498A4804F084FB0F21C02369446C6132
:1013100001220B708548AC61AF6104F079FB6F610D
:1013200001228949814804F073FB0E21C2236944DC
:101330006C6101220B707D48AC61AF6104F068FB09
:101340006F6101224946794804F062FB0D21C323F5
:1013500069446C6101220B707448AC61AF6104F0A8
:1013600057FB6F6101227949704804F051FBC42397
:1013700003A96C6101220B706C48AC61AF6104F091
:1013800047FB6F6101227249684804F041FB0B2161
:10139000D02369446C6101220B706448AC61AF6179
:1013A00004F036FB6F6102226A49604804F030FBAA
:1013B0000A21C62369446C6101220B705B48AC6151
:1013C000AF6104F025FB6F6101226349574804F0C7
:1013D0001FFB0921E02369446C6101220B70534813
:1013E000AC61AF6104F014FB6F610E225B494F48A2
:1013F00004F00EFBE12302A96C6101220B704B4843
:10140000AC61AF6104F004FB6F610E2254494748A0
:1014100004F0FEFA212301A96C6101220B704348FC
:10142000AC61AF6104F0F4FA6C61732000F06CFE03
:101430006B46D91C112301220B703C48AC61AF6193
:1014400004F0E6FA6B46991C29236C6101220B70AB
:101450003648AC61AF6104F0DBFA6B46D91D2A2334
:101460006C6101220B703148AC61AF6104F0D0FABD
:101470000C239C46E04441466F6104222B4804F053
:10148000C7FA6B46991D2B236C6101220B7027480C
:10149000AC61AF6104F0BCFA41466F61042223489D
:1014A00004F0B6FA6B46591C2C236C6101220B70B8
:1014B0001E48AC61AF6104F0ABFA6C610820AC610E
:1014C0006F6100F0BBF980235B00AB62254C264DB9
:1014D00021682868FFF784FC244B29681E60244A91
:1014E00023681800914200D00830224DC2031543F2
:1014F000A022002404339B00D205CB181460536053
:101500009460156101251C4B01211D6001F024FD33
:101510001A490B2001F03AFD01210B2030E0C046B2
:10152000FFFF00000000054000127A0000C00340E9
:10153000A85A0010305A0010AC5A0010B05A0010CF
:10154000B45A0010B85A0010BC5A0010C05A00100B
:10155000C45A0010C85A0010CC5A0010D05A0010BB
:10156000E05A0010ACC1002038420020B44C0020EA
:10157000000020501900400004240050AD0C001061
:1015800001F0EAFC0C4B0D4A5C66DC661C675A678E
:10159000102204219A660B205D6600F009F9084BC1
:1015A000084A1B681B0C1B04136009B03CBC904626
:1015B0009946A246AB46F0BD00000540FFFF000083
:1015C0007000054070100540F0B583B006000F00B4
:1015D000140000F089F9002829D1164D01222B00B2
:1015E00001210095053001F0ABFA3B003200009478
:1015F0000121114801F048FE21003000794301F03B
:1016000019FF04000D4B002200930221042001F079
:1016100097FA2300002201210094052001F090FA9E
:1016200000952B0002220021062001F089FA03B068
:10163000F0BDC046006CDC0200800240001BB70019
:10164000F0B5DE4657464E464546E0B5070087B042
:10165000042005930391049201F078FCFA2189009B
:1016600001F0E8FE32238246FF339B468600564453
:10167000B6014D4B4D4AF318934200D974E007214F
:10168000300001F0D7FE07210190300001F0D2FEBA
:101690000724029121003000614301F0CBFE874214
:1016A00044D0631E9846002B5ED01D006543300079
:1016B000290001F0BFFE874262D0A31E9946002B8D
:1016C0002CD02D1B2900300001F0B4FE87425AD0E7
:1016D000E31E9946002B21D02D1B2900300001F07C
:1016E000A9FE874253D0231F9946002B16D02D1BED
:1016F0002900300001F09EFE87424CD0631F9946BE
:10170000002B0BD0291B300001F094FE874246D0FD
:101710004346052B02D0019B9F421ED04446210028
:101720003000614301F086FE8742BAD10029B8D16A
:10173000A0464246012073019B1B9B009E19039B00
:10174000F6001E60049B1C60059B1A6007B03CBC41
:1017500090469946A246AB46F0BD029B002BDDD1D8
:10176000012307249846E4E701235B429C46534645
:10177000E344F61A5B46002B00D07AE70020E5E749
:1017800000299AD1D5E70029A2D1C846D1E700297E
:10179000A9D1C846CDE70029B0D1C846C9E700297C
:1017A000B6D1C846C5E7C04680E5F9FF804F1200B4
:1017B000094A830094464022634410B51C68C00067
:1017C0006240C02414408022520113431C60034B2A
:1017D0009C466044416010BD04C00140004001408F
:1017E0000B4B80009C46604400290DD00C2108233F
:1017F000002A00D00B00026853400C221A408023BC
:101800005B0118430260704704210023F0E7C046E3
:1018100004C00140084B80009C466044002905D16B
:10182000C0239B01184340230360704780239B0122
:10183000184340230360F8E704C001400123D0228D
:101840008340120693629361094A830094464022C2
:1018500063441968C0004A40C021114080225201EF
:1018600013431960034B9C46052360444360704753
:1018700004C0014000400140EFF3108072B6034AFB
:101880001368002BFCD0BFF35F8F70472C0100D092
:10189000BFF35F8F0022024B1A6080F310887047FD
:1018A0002C0100D0F8B5EFF3108772B60D4E3368F7
:1018B000002BFCD0BFF35F8F0725CB08C018012396
:1018C0000D40AB401D000478254007D12343037031
:1018D000BFF35F8F356087F31088F8BD100001F00B
:1018E00011F9C0462C0100D0024B18688007C00FC8
:1018F0007047C04600C006400021044B044ABFF3B5
:101900005F8F02C39342FAD17047C046000100D0F6
:10191000800100D0044A1078431CDBB2172B00D999
:10192000102313707047C0464442002083680B4860
:1019300010B5844661446244090112019A1859188D
:1019400054684B6801209C4201D802D00020C0B2EC
:1019500010BD12680B689A42F9D8F7E7FFFFFF0F36
:1019600010B508000B690C009847002803D1E0600F
:101970000021002010BD20686168FBE70A4B196850
:10198000EFF3108072B60A68002AFCD0BFF35F8FB5
:101990001B68BFF35F8F00221A6080F3108840BF7E
:1019A000002000217047C046E0C20020F8B557462D
:1019B0004E464546DE46E0B51F000CAB1D780DAB2C
:1019C0001B7881469A46036816009846002D3BD145
:1019D000987B002832D042464546440012682418BD
:1019E000033C121951780300A973002900D1E9734F
:1019F0000021050091705170117029E0D31814195D
:101A00009D702278002A00D05A705B4623704346AE
:101A10005D734B463200187D3B0000F057FC041EFE
:101A200007D05346002B04D14B462900186800F01C
:101A30002DFE0E9B002B44D028001C703CBC904611
:101A40009946A246AB46F8BD2B006C006419033CD6
:101A50001D4A94464A469268634494461B010A9A7A
:101A600063449A600B9A1E605F60DA60434600220E
:101A70001B681B199A705A701A7043465B7B9B4611
:101A8000002BC4D043462A00986859465B689847A3
:101A90005B4642465B005B44033B12680028ADD0C6
:101AA000D31814195A46A2701A78002A07D11D704B
:101AB0005A46434628005A73AB45BFD1A9E7627026
:101AC000F5E72800BAE7C046FFFFFF0FF0B5DE4696
:101AD000454657464E46724B8200E0B5D558002326
:101AE0008DB00B909B4627E0069A079B1100194387
:101AF00003D02B69002B00D093E02B68DA7B002AFF
:101B000007D051008A1819688C4649466244033A46
:101B100051704A46DA73EA684B469446013B634487
:101B20001A7801321A705B462B616B68BFF35F8FC6
:101B30005A461A6084F3108800F066FB6A68EFF377
:101B4000108472B61368002BFCD0BFF35F8F2B6834
:101B50009C465B7B9946002B5BD0AA68514B904614
:101B60004B441B01984443461A685B6816001F00EB
:101B7000361A8F41002F6EDD0B9800F0A7FB002274
:101B8000002300270026089209936B68BFF35F8F3C
:101B90005A461A6084F31088002E76D053461802F5
:101BA0004B4639001843B0476A6806900791EFF337
:101BB000108472B61368002BFCD0BFF35F8F079BB5
:101BC000002B91DA2B69002B97D006980799089A79
:101BD000099B121A8B410898099906920793079A54
:101BE000914203D807D1069A904204D90122524269
:101BF000D317069207935B46012104934B4603914A
:101C0000029301970096069A079B2800FFF7CEFEE5
:101C100089E700220023002708920993002600206C
:101C2000B3E700F0F1FA069A079B12184B4199426C
:101C300002D804D1904202D901225242D317594608
:101C400004910121039149460197029100962800D1
:101C5000FFF7ACFE67E7002F01D1002E8CD10021E9
:101C6000604600F067FC43461A685B680892099377
:101C700043469E68DF68EB684B44013B1B789A46FD
:101C80001B021843286100207FE7002800D053E79B
:101C90000DB03CBC90469946A246AB46F0BDC0464E
:101CA000D0C20020FFFFFF0F10B5124C6368002B5D
:101CB00004D00A21104800F095FB10BD23000F4A04
:101CC0001021206800F018FC032000F091FA032096
:101CD00000F068FB0A49032000F0B2FAFFF71AFE91
:101CE000084B9C46032360442375074B80006060CB
:101CF000DC60DEE748420020E0C200202D19001021
:101D0000CD1A001040000034D0C2002000487047B7
:101D100048420020F0B54546DE4657464E46E0B5FF
:101D200085B01099050088461100194300D1D2E012
:101D3000D81704005440260004005C40010027002E
:101D4000361A8F4141460E980A600F9A8D600861DD
:101D50004B604A6100F058FA36184F4100960197DF
:101D6000B94200D8BCE001235B42DC170093019428
:101D7000002399469B466A68EFF3108A72B613688F
:101D8000002BFCD0BFF35F8F2E68B47B002C52D0A9
:101D900067003F193368033FDB195A78B273002A92
:101DA00000D1F2735A469A705A701A70AA68594B49
:101DB00094460099019AE3181B01634419605A6024
:101DC000554A9A604246DA605A463368DB199A707F
:101DD0005A701A70737B0393002B49D019007368F3
:101DE00022009C46B068E047039932688C464B005D
:101DF0006344033B002832D0D719D318B9701A783E
:101E0000002A00D07A701C70039B73739C4230D000
:101E1000EB686A681B19013B1B78BFF35F8F59465B
:101E200011608AF310884A46002A2FD11B021C43F6
:101E30000123994609E06B68BFF35F8F1C608AF34A
:101E40001088002301249946644243464846DC60DA
:101E500005B03CBC90469946A246AB46F0BDD318AF
:101E6000D7199C703A78002A41D05A70039B3B7076
:101E70007473287D009A019B00F028FA814600289F
:101E8000C6D02100286800F001FCC1E74046036984
:101E900098478146002801D10024D6E743461A68B6
:101EA0005B681100194324D016001F1E25DA009824
:101EB000019902000B00921BBB41994202D807D145
:101EC000904205D901235B42DC170093019452E74D
:101ED000009201934FE7012600270122002331E7FA
:101EE000B94200D044E7B04200D93CE740E739703E
:101EF000BEE7002300249946A7E700F085F93618CD
:101F00004F4100960197B942DCD800D033E7B04288
:101F1000D8D830E7FFFFFF0F61190010F0B5574622
:101F20004E464546DE460400E0B50D0006267642E4
:101F3000F71736196F4185B08F4200D987E000D17D
:101F400082E000F061F932003B00121A8B41002B55
:101F500000DC87E0674B99465A68EFF3108B72B646
:101F60001368002BFCD0BFF35F8F4B461B6898466D
:101F70009B7B9A46002B7BD05B0053444246033B3D
:101F80009C46414612680093624453788B73002B41
:101F900000D1CB7300234946937053701370896846
:101FA000554A8C46524455491201624416605760A6
:101FB0009160D360009942468C46126862449370E7
:101FC0005370137043465B7B0393002B00D16FE08B
:101FD00019004046434652465B6880689847039B19
:101FE0009C465A006244033A002854D00099404667
:101FF0008C46036803999A186344997011780029F4
:1020000000D05970534613704246039B53739A4550
:1020100051D04B465B68BFF35F8F00221A608BF391
:102020001088BC46B0460094019500266546344FA2
:10203000344A7B6A9D424CD8B96A414501D29D42DF
:1020400047D0009C019D1BE0864200D879E700261E
:10205000002700F0D9F832003B00121A8B41002B08
:1020600000DD77E7002B0BD1002A00D072E707E0F4
:102070004B465B68BFF35F8F52461A608BF3108844
:102080002000290000F0CCF805B03CBC90469946F1
:10209000A246AB46F0BD43461968009B8A18CB1890
:1020A000514691701978002900D05170039A1A7026
:1020B000434652465A734B463200187D3B0000F0AF
:1020C00005F90028A5D04B465146186800F0DEFA05
:1020D0009FE71168EFF3108072B60B68002BFCD0FD
:1020E000BFF35F8F1368BFF35F8F1E6080F31088AC
:1020F00020BF9EE748420020FFFFFF0F7D19001020
:1021000000400540E0C2002070B5060000F07CF8F9
:10211000FA2204000D00920000233000002102F09A
:10212000ADF8001969418D4205D901204042C1171F
:10213000FFF7F4FE70BD8D42FAD18442F5D8F7E77F
:10214000F0B5C64600B5EFF305833F2213401800F3
:102150001038EFF3108772B61F4D2A68002AFCD0A2
:10216000BFF35F8F012211008140884644461B491E
:102170004C631B4C2678A4463400C440224007D14F
:10218000BFF35F8F2A6087F3108804BC9046F0BDD0
:102190004C6A1449820051588C420FD3124BD258CA
:1021A00043469E4363461E70BFF35F8F00232B6040
:1021B00087F31088002AE8D09047E6E70B4A9B0097
:1021C000944663441A681A60BFF35F8F00232B6044
:1021D00087F31088D9E7C046280100D000400540A9
:1021E000F9C20020E4C2002048C20020D03F0540D0
:1021F00010B50100024A0348FFF754FB10BDC0466A
:10220000F05A0010F7C20020044A516A00E0190099
:10221000906A536A9942FAD17047C046004005401F
:10222000064A536A9942FCD807D1044B02E05A6A25
:10223000914202D19A6A8242F9D370470040054028
:1022400070B504000D00EFF3108672B61A4A1368D9
:10225000002BFCD0BFF35F8F002D1BD0200000F0BF
:102260008DFE164988420AD0200000F08FFE012121
:10227000200000F071FE0123A340114A1360114BAE
:10228000A400E550BFF35F8F00220B4B1A6086F36A
:10229000108870BD0B4BA200D5500122A2400A4904
:1022A00020000B7893430B70044900F099FE002145
:1022B000200000F051FEE5E7280100D04121001088
:1022C0003860054048C20020F9C20020F0B5D6466B
:1022D0004F4646462E4CC0B5656A00E00D00A66A22
:1022E000616AA942FAD1AB4248D9EFF3108972B6BC
:1022F000284C21680029FCD0BFF35F8F26490126B6
:102300008C46097886400F00884661463743FFB205
:102310000F70041D1E49A400204D4E6362508400BE
:1023200063510D6A002435421BD04D6A00E0250040
:102330008C6AA2464C6AAC42F9D1AB4224D801D196
:10234000524521D8474521D0114B154A1E625E6384
:102350001F2318401E3B83401360634642460124FE
:102360001A70BFF35F8F00220A4B1A6089F310883E
:1023700020001CBC90469946A246F0BDAB4201D15C
:10238000B242B2D80124F3E70024EAE70124E8E7E7
:1023900000400540280100D0F9C20020E4C200201E
:1023A00080E200E010B5EFF3108472B60A490B68C2
:1023B000002BFCD0BFF35F8F01238340074A0848FE
:1023C000136202789A430270BFF35F8F00230B60A1
:1023D00084F3108810BDC046280100D0004005409D
:1023E000F9C20020024B9C4661448900016070479D
:1023F0004000003410B50400FFF78CFA0100200003
:10240000FFF7F0FFFF23A380BFF35F8F10BDC0462F
:1024100010B50400FFF77EFA01002000FFF7E2FF8D
:1024200001235B42A380BFF35F8F10BDF8B5474621
:10243000CE4680B54C0003686418033C1A195678E0
:1024400007000D00002E04D128000CBC90469946D0
:10245000F8BD710089190339884643445978894683
:10246000002159705170002D11D07B683200290075
:10247000806898473B68002832D01A1943449D7001
:102480001178002900D059701670A04600E0350080
:102490004B46002BD8D049463800FFF7C7FF041E33
:1024A000D2D002007B682900B868984763001B19E6
:1024B000033B3A68002809D1D31842449470197834
:1024C000002900D051701D702500BDE74146D3188A
:1024D00051189D700A78002A00D05A700C70B3E72A
:1024E00042461C199A18A6701378002B00D063700E
:1024F00015703500CCE7C04610B583600023CCB220
:1025000043730133047342608373C4730068012C06
:1025100006D9421C0133DBB2137003329C42F9D856
:10252000FF2319404B00591800234018033843700B
:1025300010BDC046F0B54E4657464546DE46E0B5AE
:10254000467B03687400A419033C1A19177883B0FA
:1025500005008946002F1ED1002911D0C07B00281C
:102560002AD041000918591803394E70EE73002F14
:1025700006D07900C919033988460021434499706F
:102580000023300053706F7303B03CBC90469946F3
:10259000A246AB46F0BD7900C919033988465918DF
:1025A00048788246002809D149460029E5D0E87BD1
:1025B0000028D6D1EE73DCE7EE73E1E74200524427
:1025C000033A93465B445A78019200225A704A704B
:1025D0006B6802003900A86898472B68002830D142
:1025E000414650465A4659189A1888701078002863
:1025F00000D048701770D8465746019A002A2DD04F
:1026000011002800FFF712FF8246002825D00200A3
:1026100039006B68A86898475346590051440339FC
:102620002B6800281CD04246591898188F700278E1
:1026300094461A196446002C00D04C705146017023
:10264000B2E75946424659189A188F7010780028F8
:1026500000D0487051461170CFE72B681A19A3E7D4
:102660005A18984493465046424690705A461278FB
:10267000944660461A19002802D0404664464470C9
:1026800058468846077057468EE7C046F0B545461F
:10269000DE4657464E46E0B50C0083B005000023E9
:1026A000002927D06600477B01683619033E881948
:1026B000A74233D08278002A1CD053009B18033BDA
:1026C000CB181A78A2421FD142781A7000230278E0
:1026D000837043709146002A33D1EA7B002A66D08A
:1026E00053009B18C91803394C70EC7300234370D6
:1026F00001236F73180003B03CBC90469946A24674
:10270000AB46F0BD002AE1D053009B18033BCB1829
:102710005A78A242F6D142785A70D7E702780192ED
:10272000002A46D1EA7B002A3FD053009B18C918E3
:1027300003394F70EF7300234370019B6B730123C8
:10274000D8E752004A44033A90468A185778002F37
:1027500042D1EB7B002B00D029E14F466E7BEC731E
:10276000002393704370002EC2D03A006B68310092
:10277000A868984773009B19033B2A68002808D073
:10278000D31842449670197800290CD11F70370075
:10279000AEE74146D31851189F700A78002A00D03E
:1027A0005A700E70A4E75170F0E7EF73C3E7EC7353
:1027B0009CE71400A44652006244033A90468A18EB
:1027C0005478A146002C58D1EB7B002B00D0F7E0C9
:1027D000EF7300239370AEE77800C0190338824688
:1027E000514448784B7053706B6883463A004946B1
:1027F000A86898472B68002800D1A2E042469818A4
:10280000524699184A468A700190020000780028C2
:1028100001D0019A487017704F465A46002A28D0B6
:1028200059462800FFF702FE8146002820D002000A
:102830006B683900A86898474B465B004B44033BE4
:102840009C4600286DD042462B689818624699181D
:102850008F7001900078002800D083E04A460198EC
:102860000270E97B98196E7B002951D1019A76E7B5
:102870002B6842469A180192F3E7600048440338F7
:102880008246514448784B7053706146220083461B
:102890006B68A868644698472968002878D0524633
:1028A00043468A18CB1894701878002800D05070CE
:1028B0004A46C2461A705B46002B50D05946280043
:1028C000FFF7B4FD8046002848D0019C020021009B
:1028D0006B68A868984743465A004244D31E29684B
:1028E000002844D05246CB188A189C7010780028D3
:1028F00000D0587043461370EB7B8819002B00D131
:1029000066E75E00F318C91803394F70EF7360E78C
:102910004A00944661445B18033B5C70019AEC7377
:102920001EE729684846CA184346CB1898701078A5
:10293000804688194646002E00D05E701770E0462B
:1029400007E74146524659189A188F7010780028A8
:1029500000D048704946D04611705EE7296853465A
:10296000CA18C9E74A46487001990A7079E7CA1837
:1029700053464046CB1898701078844664468819B0
:10298000002C00D05C70019B1370434601931BE741
:102990005346CA1843464846CB189870107800280A
:1029A00000D05870019B13704B46019383E70326B8
:1029B0007343C91803394C706E7BEC734F46CFE6F6
:1029C00003267343C91803394F7001E7304B314A6E
:1029D00070B51A60304A314B31491A6010008B686B
:1029E0009843FBD12F4C304DAC4209D20322231D1A
:1029F0000335ED1A9543ED1808CC9847AC42FBD14E
:102A000000F040F9294A254B1A60254A9368DB01FA
:102A10008033FBD14022264B264C274D9A675A67BC
:102A20001A67DA66AC4215D2230007350833ED1A6F
:102A3000393A9543ED1804E00834FFF7E9FCAC425D
:102A400008D063792000002BF6D10834FFF7D2FCC0
:102A5000AC42F6D1194D1A4CC022A168280001F0F1
:102A6000D7FFA560FEF748FF00F0F2FBFFF71CF967
:102A7000144D154CA54209D203222B1D0334E41A30
:102A80009443E41808CD9847A542FBD170BDC046D9
:102A900000E00040BFCDFBFEFE7F3C0000F00040A8
:102AA00000C00040284B0020384B0020FFFFFF01F2
:102AB00000F00140204B0020284B002000000020A7
:102AC00000ED00E0384B0020484B0020094A136815
:102AD000002B06D008491818884208D81060180042
:102AE0007047064B0449181813608842F6D9012331
:102AF0005B42F4E7C8C200200000042004C50020A7
:102B000000BEFDE70FB400B5084883B002F02CF812
:102B1000049B002B07D005A91800019100F036FC9A
:102B2000034802F021F800BEFDE7C046205B00101C
:102B3000305B001010B50148FFF7E4FF145B001094
:102B4000F0B5DE46574645464E46E0B583B0170021
:102B50000C9A05008B4600209A4248D81A0E9246DD
:102B60001E020C9A00233000514600F0A5FC434B96
:102B70006C009C466419A4006444636880468342E8
:102B800000D260602B1FDAB2C0239B010192234365
:102B9000012A33D9802212011A60394BAD005959EC
:102BA000994600294CD04B46586900F043FC01304F
:102BB0000138FDD123687F017B40E0271F4080233F
:102BC000019A5B0123431F60012A2CD980238022B4
:102BD0009B01234312011A60434642466360300062
:102BE0000023514600F068FC4B465851012003B0C9
:102BF0003CBC90469946A246AB46F0BD5A46012AD7
:102C000028D0802212011A601D4BAD0059599946F7
:102C10000029C8D123687F017B40E0271F40802323
:102C20005B0123431F605A462168514003220A403A
:102C30001A6001225B469A40A3681A42FCD0C5E79D
:102C400023687F017B40E0271F4080235B012343F3
:102C50001F60BBE702321A60023AA3681A42FCD036
:102C600023687F017B40E0271F408023044A5B01EB
:102C700023431F609146AD00D5E7C0460080004069
:102C800058C2002030B50C2083B000F05DFBFEF789
:102C90002BFE00280ED0964B964A1A605A609A6016
:102CA000DA601A615A619A61DA611A62924A5A626A
:102CB00003B030BD914CA06700F04EFB0122904B59
:102CC0001A60636C012BFCD103228E4B1A608B4A75
:102CD000936B012BFCD1022405338B4A01218B48D5
:102CE000009400F0D1FA0523894A00940121894813
:102CF00000F0CAFA884B5A68FF2A02D88022520094
:102D00005A6080227A4C7F4B21691201824D1A60F1
:102D1000002900D0E5E0E0217F4B02201A68114035
:102D2000802252012A431160196848400321014062
:102D3000116004219A681142FCD080228021920106
:102D40002A4309011160802252005A60734B2361AB
:102D5000734B5968FF2900D8C1E00322684B7048C3
:102D60001A60012103009A681142FCD0E0251A681C
:102D7000154080225201024315601B684B4003211D
:102D8000194011600221664A93681942FCD08023E1
:102D900080219B010343090119608021614B490097
:102DA00051606361604B5A68FF2A00D859608022E5
:102DB0005E4BE16912015C4D1A60002905D0606923
:102DC00000F038FB01300138FDD1E02256490B6894
:102DD0001A4080235B012B431A60802380229B01D1
:102DE0002B4312011A608022424B52004A60E36179
:102DF0004F4B5968FF2900D85A6080224D4B216AF9
:102E000012014B4D1A60002905D0606900F012FBD9
:102E100001300138FDD1E02245490B681A4080237A
:102E20005B012B431A60802380229B012B431201FC
:102E30001A6080235B004B602E4B3F4A23623F4B5E
:102E40005968914201D801325A6080223C4B616A34
:102E500012013A4D1A60002905D0606900F0EAFAC3
:102E600001300138FDD1E02234490B681A4080233B
:102E70005B012B431A60802380229B012B431201AC
:102E80001A608023DB024B601B4B63622D4B5A6838
:102E9000FF2A02D8802252005A6080222A4BA16960
:102EA0001201284D1A60002905D0606900F0C2FAAD
:102EB00001300138FDD1E02222490B681A408023FD
:102EC0005B012B431A60802380229B012B4312015C
:102ED0001A6080235B004B60124BA361E8E65A60E6
:102EE0003BE7606900F0A6FA01300138FDD112E736
:102EF00058C20020006CDC021BB7000000800040BC
:102F00003CB0004030B00040002F685900800240C3
:102F100000389C1C00C0024030800040001BB700FD
:102F20003C800040405973075480004054B000403A
:102F30006080004060B00040FFFF03006C800040F4
:102F40006CB000404880004048B00040014B800019
:102F5000C058704758C2002001238340002902D185
:102F6000034A13607047034A1360034A1360F9E78A
:102F700080E100E080E200E000E100E0024B103080
:102F80009B688000C058704700ED00E070B50D00F0
:102F9000EFF3108672B60F4A1368002BFCD0BFF314
:102FA0005F8F0D4B10309B6884001B590B4A934276
:102FB00003D09D4201D0FFF7BDFD074B9B681D511B
:102FC000BFF35F8FBFF35F8F0022024B1A6086F35F
:102FD000108870BD240100D000ED00E0CD0100108C
:102FE000F0B54546DE4657464E46E0B50D0083B087
:102FF000EFF3108A72B65C4A1368002BFCD0BFF363
:103000005F8F1022914681444A46584B96009B6838
:103010009C59574B98469C4205D0AC424FD0554FD7
:10302000E31B2F2B12D9514B9B689C51BFF35F8F31
:10303000BFF35F8F00224C4B1A608AF3108803B0F5
:103040003CBC90469946A246AB46F0BD0123834066
:103050009B465A46484B1B681A4000925A46474BBB
:103060001A60BFF35F8FFDF7FEF80190002803D0D0
:10307000814501D0FFF75EFD0123220006209A431F
:103080001300DB1B5B4144495943090D93688C468F
:1030900010569D420AD151E043001B1806209B00A8
:1030A000FB1899681856A94211D01A000028F3DAC3
:1030B000009B002B05D15A46304B1A60B3E71C0029
:1030C000B1E75A462E4B1A602B4B1A60ABE700282B
:1030D00025DB4200111889007D188846A96899608F
:1030E000E979D971062169569971A9797F2913D88F
:1030F000AD88F91A6D052D1545444919E0250905D6
:10310000490D2D022943998012181E4B9200BF18B9
:103110001A781870BA71CBE7BD210902F3E701995B
:10312000002913D1002A0FD0FF20907116489080FB
:10313000144A1078987163461370B9E71300002899
:10314000C7DA019A002A01D14446F1E70F4A104933
:10315000D21A083A5002400D014399800D49520895
:103160000A43DA80A4E7C046240100D000ED00E065
:10317000CD0100107042002000E100E080E100E09D
:1031800080E200E0F8C2002000BDFFFFAA4200205C
:1031900000F0FFFF00F8FFFFAAAA0000F8B5012524
:1031A00004000543FDF75FF8EFF3108672B6214A7D
:1031B0001368002BFCD0BFF35F8F1F4A2100891AD0
:1031C0004941224B4B431B0D1C4980008F685BB269
:1031D0003F58AF421CD006215156994226D01221A9
:1031E0005156994224D01E215156994214D02A2179
:1031F00051560320994210D0114A11781370A171D1
:10320000BFF35F8F00220B4B1A6086F31088F8BD66
:103210008A680C491150EFE7022041000918890023
:103220005218FF21917108499180E5E70020F4E7E9
:103230000120F2E7240100D07042002000ED00E000
:10324000F8C20020CD01001000BDFFFFAAAA0000B7
:10325000F0B500220324FF27802620003D00094B03
:1032600011009C461040C0008540A14361440B689A
:103270000132AB43350085402B430B60202AECD153
:10328000F0BDC04600E400E0F8B504000C201E00CC
:1032900017000D0000F0CEF84201121A9101891AB0
:1032A000C90009188901380000F0C4F8069B3604EB
:1032B0001B031E432368002B21DB184BE2185342EB
:1032C0005A4180235B019C4652421A40144B62448F
:1032D0001A60144B1A60144B170099688F43FBD186
:1032E000C023221D9B01134321222560A0601A6088
:1032F0002268002AFCDA0822E6601A60F8BD3F2343
:1033000022681340AB42D8D1A3681B051B0D834232
:10331000D3D1E368002ED0D1F0E7C0460040FDBF16
:1033200000E0004000F0004000C00040044B0001FD
:103330001B685840F0231840024B18607047C04685
:10334000004006400050064080239B001843014B7C
:10335000D862704700800540AA23064A1B0113600B
:103360002F230549D360054B19605368002BFCDA05
:103370007047C0460040024000B0FA0000600240C2
:1033800010B5002801D001F097FB10BD10B5094A17
:1033900084B01468002C09D001220091030052422D
:1033A00003A90548A047012004B010BD01F0DCFBD3
:1033B0000020F9E7CCC2002081330010014804212D
:1033C000014B1847C0420020F9330010014B9B68A5
:1033D00018470000C0420020142310B501001888CF
:1033E00004331B88984710BD162310B501001888B8
:1033F00002331B88984710BDF0B5C64600B50029BA
:1034000016D0142304000125984618278900461871
:103410004346216818883B88984701C4431E984159
:1034200040420540A642F3D1280004BC9046F0BDBE
:103430000125F9E7114A936F9B0813D21066516674
:10344000002905D0FFE7FFE7FFE7516F106F7047D6
:1034500004B5002801D00020C04302F0C9FA0021C1
:1034600004BDC046F0B5146E556E576F166FFFF76A
:10347000E5FF1466556657671667F0BD000000D07B
:1034800094464E4A926F9208624601D230E0C0469E
:10349000F0B54A4EB56F6D08FCD3346E756E776F1C
:1034A000366F00F025F89446444A1466556657670F
:1034B00016676246F0BDC0469446404A926F920835
:1034C000624601D258E0C046F0B53C4EB56F6D087B
:1034D000FCD3346E756E776F366F00F04DF89446FE
:1034E000364A14665566576716676246F0BDC04691
:1034F000002B24DB11D000293EDA00B5C94340423D
:1035000000D1013100F038F8C943404200D1013107
:10351000DB43524200D1013300BD002AEBD1002829
:1035200001D1002905D00020C90FC90701D1C0432E
:10353000410800B502F054FA0022002300BD00B596
:1035400000290ADBDB43524200D1013300F014F8BA
:10355000C943404200D1013100BDC943404200D1BE
:103560000131DB43524200D1013300F005F8DB4367
:10357000524200D1013300BD002923D1002B18D1C4
:10358000002A0CD0BC460D4F38667A660021002315
:10359000FFE7FFE7FFE77A6F386F6746704700285D
:1035A00001D00748010000B502F01AFA00220023FA
:1035B00000BD02000B00002000217047000000D079
:1035C000FFFFFFFF002B00D0BDE0130C26D1002A27
:1035D000E7D080B4104F39667A66FFE7FFE730B472
:1035E000040C7B6F396F1B0423433B66FFE7FFE747
:1035F000FFE7C04684B27B6F3D6F1B0423433B66ED
:10360000FFE7FFE7C04600232C042D0C7A6F386FCC
:1036100000196941B0BC7047000000D0F0B5944675
:103620000025140E01D112020835140F01D1120128
:103630000435940F01D192000235D40F01D152000C
:103640000135D40B0134254F7C66254C3C660E0CAD
:1036500093B2FFE7FFE7FFE73C6F6643360C770363
:10366000BE467343DF0B5B04C01AB941130C7343AE
:10367000DB18C91ACE086643360CB64493B27343BE
:103680001F0F1B01C01AB941130C73431F0B1B05FD
:10369000C01AB941860D8F023E436643360C092D90
:1036A00024DB520A7243801A7703460A6643360CBB
:1036B00016235B1BDE40DF40BF1964466643821B56
:1036C0007046043506330100D940A840C01900D324
:1036D0000131A24206D20023F0BD0000000000D05C
:1036E000FFFFFFFF121B0130F3D3F1E709277F1B18
:1036F000FE406446A2B27243801A00D20139220C05
:103700007243130C1204821A99410B00704604355F
:1037100013370100F940A840801900D30131002B74
:1037200002D1A2420AD2F0BD013000D30131121BF6
:10373000FAD2013BF8D1A24200D2F0BD013000D351
:103740000131121BF7E7F0B51C0C00D080E00CB47F
:1037500000251C0A04D11B02160E33431202083541
:103760001C0B04D11B01160F3343120104359C0BB3
:1037700004D19B00960F334392000235DC0B02D13B
:1037800092185B4101351C00971864410134464F83
:103790007C66464C3C660E0CFFE7FFE7FFE7C04641
:1037A0003C6F6643360C7703BE4697B27743C01B27
:1037B00000D20139C01B00D201399FB27743C91B27
:1037C000C91B170C77437E04FF0B801BB941CE0841
:1037D0006643360C0C2D33DBB644120B1F053A43FF
:1037E0001B0B97B27743C01B00D201399FB27743BE
:1037F000C91B170C77433E043F0C801BB941860D53
:103800008F023E43664329277F1BFE400C3D7746CF
:10381000AF40BF1930BCA2B2ABB272437343801A3F
:103820009941220C7243130C1204801A9941020030
:103830000B000137001BA941F9D2781E0021F0BD11
:103840000C277F1BFE4077467F0BAF40FF19E0E758
:1038500000245D1C07D0144F7D663966FFE7FFE743
:10386000FFE7FFE73C6F95B29EB265436643401B9E
:10387000B141150C1E0C6543664336042F0C3E43C4
:103880002D04401BB141994204D202000B002000DC
:103890000021F0BD01D19042F7D3801A9941013443
:1038A0009942F2D3F6E70000000000D0FFFFFFFFCF
:1038B00048404140484018B41B4B5B68FC460193AC
:1038C00008BD04DFF739001018B4174B1B68FC461D
:1038D000019308BD00DF013A00109446134A926F2D
:1038E000920809D2624618B40F4BDB68FC4601937C
:1038F00008BD0CDFB93C00100C4AF0B5146E556ED3
:10390000576F166F6246FFF7EEFF084A146655665A
:1039100057671667F0BD18B4034B9B68FC460193CC
:1039200008BD08DF5D3B0010FCC20020000000D095
:1039300018B4044BDB6FFC46019308BD7CDF693E85
:1039400000100000FCC2002018B4044BDB6CFC46E5
:10395000019308BD4CDF154000100000FCC20020A0
:1039600018B4044B1B6DFC46019308BD50DFB140F9
:1039700000100000FCC20020132370B51C78012C3D
:103980000CD015DD0C48FFF72FFD0C4D01008022F7
:10399000280001F03DF8022C0BD070BD074D084AFD
:1039A00029002B00803104C38B42FCD1AA64F4E7C8
:1039B000024D034AAA64F0E753440000FCC2002011
:1039C000C539001007B5604601880A0A0230DF2AAF
:1039D000FAD1C9B2820804D3028840880004104397
:1039E00000E00068014A5050039007BDFCC200206F
:1039F0000FB403BC0CBCF0B50124E407634000E045
:103A0000F0B50C0DCF0F661E3605891B640503D378
:103A1000C943404200D30131640D03D0661CF60A4D
:103A200007D0E41B00207F00791C89078912803CA5
:103A300024031D0DDF0F6E1E36059B1B6D0503D382
:103A4000DB43524200D301336D0D03D06E1CF60AE6
:103A500007D0ED1B00227F007B1C9B079B12803D43
:103A60002D032F1B661B58D4A446202E46DA203780
:103A70001400BC401D00BD40F24033412A43801871
:103A80005941CB0F05D0C943C04300226442504185
:103A9000514162464D0D28D10D0D07D100281FD090
:103AA000241940414941013A0D0DF9D0640006D373
:103AB000013000D30131002C01D140084000013A0F
:103AC0000BD4941CE40A04D112051144DB071944F9
:103AD000F0BDD907204B194300E0D9070020F0BD05
:103AE0000029DDD1002CDBD1F0BD0132C607400832
:103AF000CD0728434908002EE1D0D9E73C2E29DA2A
:103B0000203E40371400BC4000D00124F240144352
:103B10001A00BB401C43D317ACE7AC46202F08DA91
:103B200020360400B4400D00B540F8403941284328
:103B3000A5E73C2F0CDA203F40360400B44000D00B
:103B40000124F84004430800B1400C43C117EAE7E0
:103B500010001900002494E70000F07FF0B50C0D70
:103B6000661E3605891BE60A6405640D02D0651CD5
:103B7000ED0A04D0002001210905803C2403A4465D
:103B80001C0D671E3F05DB1BE70A6405640D02D0B0
:103B9000651CED0A04D0002201231B05803C240390
:103BA0007740644497B484B296B27443070C7E4362
:103BB000150C6F4380B26843361802D3012000040D
:103BC0003F183004350C00197D41844688B29AB202
:103BD00050430C0C62431F0C7C438EB27E439219FF
:103BE00002D301263604A4191604170C36186741AF
:103BF00001BC81B29AB25143040C62431B0C5C437A
:103C000080B25843121802D3012000042418100473
:103C1000130C401863412D185E410020474106BC3B
:103C200088B293B258430C0C6343120C544389B2CC
:103C300051435B1802D301210904641819041A0CBA
:103C4000091862416D1856410020474118BCF9021D
:103C5000720D1143F0026A0D1043ED020A0D03D1FB
:103C60006D1940414941013B124E9B1B7600B34206
:103C70000ED26D0007D301300026714166463543F0
:103C800001D1400840001B05C918E4072144F0BDDC
:103C90000BDA013306D1013004D101314F0D01D0CF
:103CA0004908F2E7E1070020F0BD013631050020A8
:103CB000EBE70000FF030000F0B51C0D671E3F0599
:103CC000DB1BE70A6405640D02D0661CF60A04D00B
:103CD000002201231B05803C2403D0252D0600264D
:103CE000F6432E661E096E66CE0FF619B4464900DD
:103CF0004F0D02D07E1CF60A03D000200021403F69
:103D00003F033E1BB600B444013F7F05C91B490871
:103D10002E6F013676089C02950D25437543ED13F1
:103D20007543AD1301356D10F603761B0CB4CC0250
:103D3000450D2C43A2B2B3B25A43270C7B43350C3A
:103D40006F43A4B26C431B1902D3012424043F190E
:103D50001C041D0CA4187D4124196D41009A91B2D8
:103D6000ACB26143170C7C432B0C5F4392B25A43B5
:103D7000A41802D301221204BF182204230C5218E3
:103D80007B41019C6C431B19520ED9010A4344012B
:103D9000A01A81B2B2B2514303145A43360C734392
:103DA00087B27743D617D21900277E4136049B1974
:103DB0001704160C7F185E417316ED18F3010026E8
:103DC00080337541A90F06D16400690AE8055B0AD2
:103DD000184309D22FE00422944480337541A90A84
:103DE000A8059B0A184326D3404149412404009A60
:103DF000019B0D005543641B4343E41A95B286B200
:103E00007543170C7E43030C5F4392B25A43B618B6
:103E100002D301221204BF183204330C52197B4121
:103E200052429C41002C02D40022013051414008F2
:103E3000CA071043490802B06246D7079210084BE0
:103E4000D218084B9A4203D212058918C919F0BD3D
:103E50000020002A01DC3900F0BD01331905F5E727
:103E6000FD030000FE0700004A00520D144BD21A59
:103E700013DDFF2A1EDAD205CB0FDB071A43C3007E
:103E8000400F0903490A084310435B0001D301D0E6
:103E9000013070474308FBD2704702D0C80FC007FB
:103EA00070470A0312130132F8D1420F072AF5D1E5
:103EB000012200E0FF22C80F00028018C0057047F1
:103EC0008003000000210A00002104E000210A0014
:103ED000C11704E00022002306E0C0460022CB17F1
:103EE00058405940C01A994130B5184CA21A0029BF
:103EF00003D1010010D00020203A4C1512D104D279
:103F0000013A001849414C0DFAD3114CA24204D297
:103F100012058918DB07C91830BDD243520D0020A5
:103F20000021F5E703D4013A00184941FBD50B32D3
:103F30004405C00A4D052843C90A640003D0002483
:103F400060416141E1E7E0D34408F8E73204000052
:103F5000FE0700000A0DCC0F531E1B05C91A52059F
:103F600003D3C943404200D30131520D03D0531C47
:103F7000DB0A07D0121B00206400611C890789122C
:103F8000803A1203014BD21A70470000FF03000071
:103F9000023225D40C2A1CDA1125AD1A0B002B4154
:103FA000083207350600EE40904091403143F0CC96
:103FB00063431A1500235A41554356435743BF02E2
:103FC000F412760576196741ED177F19801BB94108
:103FD00070470C220020C917490001310905DBE7B1
:103FE0000902030E194300025342203208D40C0088
:103FF00019419440D840204300225041514170471C
:104000000800C917203B2032F1D5002000210022F2
:1040100070470000F0B5FFF79DFF54A4FFF7B8FF0D
:10402000002904DA204C214D00196941013A04B4F9
:10403000012752A6002201239B0730CEB446001B65
:10404000A9410BD47E4220361D003D411C00B440E6
:104050001600FE40344362416B4101E000196941A2
:1040600066460137212FE8D185B29EB27543071409
:104070007E43190C4F4384B24C43F1173619002488
:10408000614109047F183404310C64197941A40F8B
:104090008800204389178018594104BC52423E329F
:1040A000FFF71DFFF0BD00006BDE73F4FD855C2C97
:1040B000F0B54F0050D27F154ED001374FD0FFF7EB
:1040C00049FF04B44902C20D1143400201272BA647
:1040D000B446002200237E4220360D003D410C00F4
:1040E000B4400600FE40344344414D41AE0F05D17B
:1040F00020002900664630CE121BAB410824A444A0
:104100000137212FE7D18900891012184B4180BC5B
:1041100017A413CC0137784379437C434F05C91268
:10412000CD17C0196941A702A415CD17C9196C4153
:10413000DD17801859416C413E22CD17AC4208D0A2
:1041400000090E0730430909260731432411043AB8
:10415000F3E7FFF7C4FEF0BD02490020F0BD0249BD
:104160000020F0BD0000F0FF0000F07FAAB80000C2
:104170006BDE1300A3EF0F0021170B00F34B98BF6A
:10418000EC23F319D6104DCDE3FB470E7AB9BC8A68
:10419000DBC18907CC542C021846E103053083E7C4
:1041A000B029F8011E1FE0874505FE00249E41ACA2
:1041B000A9807F008117624515E03F00E610ABA99A
:1041C00002F81F008858455500FE0F00C4AAA90A2E
:1041D00080FF070056455501E0FF0300ABA92A0008
:1041E000F8FF010045550500FEFF0000AAAA008067
:1041F000FF7F0000551500E0FF3F0000AB0200F814
:10420000FF1F0000550000FEFF0F00000B0080FFA5
:10421000FF0700000100E0FFFF0300000000F8FFBF
:10422000FF0100000000FEFFFF0000000080FFFF14
:104230007F00000000E0FFFF3F00000000F8FFFFEC
:104240001F00000000FEFFFF0F00000080FFFFFFC7
:1042500007000000E0FFFFFF03000000F8FFFFFF82
:1042600001000000FEFFFFFF0000000000000080D2
:1042700000000000000000400000000051434343E4
:10428000C9188C46110C83B24B4310B4040C614323
:1042900092B280B2504362431C041B0C001910BC44
:1042A00059411304120CC018514161447047000079
:1042B0004840414048400E4B5B6818470C4B1B6818
:1042C00018470C4A936F9B0802D2094BDB681847CA
:1042D000F0B5146E556E576F166FFFF7F6FF054A6F
:1042E0001466556657671667F0BD014B9B68184703
:1042F000FCC30020000000D007B5484041404840C2
:1043000001E0C04607B54200120E03D0FF2A03D1D8
:10431000420218D8C00DC0054A00120E03D0FF2A71
:1043200003D14A020FD8C90DC9050122414005D465
:10433000414001D5814207BD884207BD014349186C
:1043400001D0C043001807BD00B5FFF7DBFF01D067
:10435000002000BD012000BD491A002808D10846F0
:1043600070470000C10FC90700D54042002817D090
:10437000F44603B40B4B1B68984706BC81409E383B
:104380004042803107D20B0607D04900490AC005D8
:104390001043084360470130F8E7490A8902F5E70E
:1043A00070470000FCC4002041000A0E80231B0659
:1043B0007E2A0BDD9E3A0BDAC117400240081843F3
:1043C0005242D040490001314843704700207047B5
:1043D000C00FC01801387047C0420DD300B540006F
:1043E0004008002100F012F8002801D4404200BD2E
:1043F0008020000600BD0000034BDB69FC46184727
:104400001CDF954900100000FCC30020014B5B6AD3
:1044100018470000FCC30020014B1B6B184700002D
:10442000FCC30020034BDB6FFC4618477CDFAD4923
:1044300000100000FCC300204100090E862902DAAA
:10444000044B1B6C1847044900B500F087FA02BC06
:104450008E46F5E7FCC30020DB0FC940132310B5DF
:104460001C781348FEF7C0FF012C0BD004DD0100BF
:104470008022104800F0CCFA0F48FEF7ADFF0F4B3A
:10448000186010BD0B4C01005422200000F0C0FA4F
:104490000B4B6365A365E36523666366A366E3660A
:1044A00023676367A367E3672362E361E4E7C046CA
:1044B00053460000FCC300204C330000FCC4002025
:1044C0006949001070B5051C0C00012901D1281C98
:1044D00070BDCE0F76187610012E0CD1011CFFF79F
:1044E00004FFE30705D5011C281CFFF7FEFE051C91
:1044F000EDE7051CEBE7CB170321194009198910DB
:10450000FFF7E0FF011CFFF7F0FEF307E6D5291CDB
:10451000FFF7EBFEE2E7C046F0B5C6460D1C00B55E
:10452000041E00DB80E04B001B0E7F3B0ED41722E5
:10453000D31A0BD401210A009A40013A2A4205D12C
:10454000172B45D02A00DA40114241D180231B06A7
:10455000C418261C281CFFF727FFE30D0700804620
:10456000002B14D0FF2B12D0640210D14848874290
:1045700042DA07007F3B7B431A007F32002A66DD68
:10458000FE2A53DCFE22DB0592059E181CE0002F5C
:1045900018D03B002033402B32D8002F23DB43467A
:1045A000012B11D05C10301C012C44D1011CFFF7F1
:1045B0009CFE4346DB073CD5011C301CFFF795FEF3
:1045C000061C01E0FE26B605301C04BC9046F0BD7A
:1045D00080231B069C46291C6044FFF79DFF802317
:1045E0001B06C618F0E7FE20311C8005FFF769FEA8
:1045F0007B42061C9846D2E7FF2FBBDDFF27B9E7B9
:10460000301CFFF70FFFFFF7ABF906000F00281C67
:10461000FFF708FF32003B00FFF77DF9FFF794F941
:10462000FFF786F9061CCFE7061C93E7FF26F60581
:10463000CAE7061CC8E79D10012D0AD1011CFFF72F
:1046400054FEE307B2D5311CFFF74FFEAEE700265C
:10465000BAE7DF10012F08D1011CFFF746FEEB0778
:10466000ECD5311CFFF741FEE8E71B11012B08D107
:10467000011CFFF73AFEFB07EED5311CFFF735FEB4
:10468000EAE70121FFF71EFF011CFFF72EFEEFE70F
:1046900000FFFFFFF0B5C6460D1CFE2100B58905E1
:1046A000041CFFF751FE002836D1EB0DFF271E003A
:1046B00098463E4030D05649201CFFF745FE002862
:1046C0002FD0FF2E28D04346FF2B5CD0514B98456E
:1046D00042D07F3E57D44E4A17239E1B002E00DC4B
:1046E00070E0163BB340013B2B4200D16AE0002A48
:1046F00049DB201CFFF796FEFFF732F906000F009A
:10470000281CFFF78FFE32003B00FFF704F9FFF78C
:104710001BF9FFF70DF901E0FE20800504BC90466F
:10472000F0BDE30D22001F4046D17F3E002D2DDB62
:10473000002E11DB17239E1B0ED401221300B34061
:10474000013B2B4208D1172E02D0F5402A4203D05C
:10475000201CE3E77E2F16DC0020DFE72D498B428B
:1047600049D17F3E002D34DB002E0CDB17239E1B2E
:1047700009D4163BB340013B2B4204D1172E26D05F
:10478000F540EB0723D4FF20C005C7E7002EFADB76
:1047900017239E1BF7D401221300B340013B2B4289
:1047A000F1D1172E02D0F5402A42ECD0E00FFF24C1
:1047B000C007E4052043B1E7FF2BCFD1002DE2DA9B
:1047C0000020ABE7291C201CFFF7A6FEA6E7124835
:1047D000A4E7002EC0DB17239E1BBDD4163BB340BD
:1047E000013B2B42B8D1172E02D0F540EB07B3D5D1
:1047F0008020000692E74346FF2BABD0884503D0CC
:104800007F3E00D468E772E77E2FBCDDA4E7C04698
:10481000000080BFFF010000000080FFF8B54E4699
:104820004546DE4657464300E0B5041C8846160060
:104830001B0E002A01D000223260FF2B5AD04246C4
:1048400055002D0E56D00020002B55D0FF2D59D0ED
:104850006A1E201C9A424FDCE10F8C4641468020A4
:104860006702490200047F0A490A07430843814658
:104870009A425CD06246002A46D15C1B002C62DD65
:104880004B460120D9114042FEF7D4FD1D2384463A
:1048900000219B4622000C2C00DD0C2260467B127E
:1048A000974043435846BA46801A03414F46504604
:1048B000914001335B105F435918C71BA41A002CA9
:1048C000E8DCB94525DC4B46FF1AB94542DCFF1A46
:1048D00002317B004B4526DC23D04346002B00DA17
:1048E0004942002E00D0316096213800491BFFF765
:1048F00093FD01E0FF20C0053CBC90469946A246CE
:10490000AB46F8BD201CF7E77F425C1B0021002C62
:10491000B6DC002FDDDA4B46FF181DD54F440239B7
:10492000D7E7CB07D9D54B460131FF1AD5E7201C75
:104930004F45E1DD4A4661465200002905D1BF1AC4
:104940001D000131C9E70021BBE70121D71B1D0074
:104950004942C2E70131BCE70139BAE710B500228C
:10496000FFF75CFF10BDC04607B5604601880A0A24
:104970000230DF2AFAD1C9B2820804D30288408803
:104980000004104300E00068014A5050039007BD46
:10499000FCC300200021C2158032803201D0024ABF
:1049A0001047002070470000CD2A0000C30FDB072E
:1049B00041000A0E07D0FF2A08D00909054A8918C4
:1049C0001943400770471900002070470249C91871
:1049D000FAE70000000000380000F07F10B5040086
:1049E00000F082FB002804D0034B04199C4200D83D
:1049F00010BD0248FEF786F800000420345B00106A
:104A000001480421014B1847D0420020F93300101F
:104A1000014B5B6818470000D042002010B5FFF73B
:104A2000DDFF10BD10B5FFF7D9FF10BDF0B5C646CC
:104A3000070000B50C00151E30DD0A78037C00204D
:104A40000A2A2ED00121012D1BD01A4B984602E0D4
:104A50003100AE4215D04B1EE25C635C4E1C0A2B4B
:104A6000F6D10D2AF4D03B68884203DA091A2018DF
:104A700098473B6802214046984730003100AE42DB
:104A8000E9D1854203DD291A3B682018984764194B
:104A9000013C23780D3B5A4253413B7404BC904681
:104AA000F0BD002BCED1034802213B68984701207E
:104AB000C8E7C046A85B0010F0B5CE46474680B5B3
:104AC00083B06B46DE1CD02330701B061C68234B62
:104AD000804601A91800994600F092FF071E2ED1CA
:104AE000019B64B29C4225D0484600F099FF1C4BC4
:104AF00001271C68002C26D01A4D02E0E468002C27
:104B000010D02368002BF9D02A68002A01D0A242D5
:104B1000F4D1627C002A1AD1012130009847E46860
:104B2000002CEED1002F0ED1404603B00CBC9046B5
:104B30009946F0BD0A4B1C68002CDDD1F4E7084B08
:104B40001C68002CD8D1484600F042FFECE7012257
:104B500031002000FFF76AFFD0E7C046204B00205D
:104B6000C0C20020C4C20020F0B5DE46454657460C
:104B70004E46E0B583B0804600F0BCFDD02301ADC9
:104B80001B06070029003C481C6800F039FF8346DB
:104B900000284ED1019B64B29C4244D0364800F0BC
:104BA0003FFF364B9A461C6801239B46002C45D09C
:104BB0000A2399463B00324E4746984602E0E46895
:104BC000002C19D02368002BF9D03268002A01D0BC
:104BD000A242F4D1627C002A40D141463800984775
:104BE0004B462B70627C2368002A2BD101212800C0
:104BF0009847E468002CE5D15B464746002B1DD161
:104C000053461C68002C06D06368002B2CD09847B4
:104C1000E468002CF8D1380003B03CBC90469946BB
:104C2000A246AB46F0BD154B1C689A46002CBFD17E
:104C3000F1E7124B1C689A46002CB9D10E4800F0DF
:104C4000C7FEDDE7227C002A12D102210D489847D9
:104C50002B780D3B5A4253412374B0E7424639004A
:104C60002000FFF7E3FEBBE7E468002CCCD1D2E7DD
:104C7000012128009847EBE7204B0020C0C200200C
:104C8000C4C20020A85B0010F8B5DE4657464E4669
:104C90004546E0B50D000600FCF7EEFD2B79052436
:104CA0009A46314B5146F7187B425F412F4B2C57A8
:104CB0009C46BB00994663464A469B5801229B4648
:104CC00053469A4020238046013A5B1A002C3EDB73
:104CD0009C4246DCA2405B461700134241D153463A
:104CE000002B1AD06B7829781B020B43A978090492
:104CF0000B43E978090619435346E51823000A884F
:104D0000500B19D192461A00A2445046123292001A
:104D10000133905102319D42F1D158464A466346D3
:104D2000384398504046FCF7B3FD20003CBC904609
:104D30009946A246AB46F8BD122082469A44504698
:104D40000133800082510231AB42D8D1E5E7002B1C
:104D500007DB170059469F401C000F42BFD0013BA4
:104D6000F7D20348FDF7CEFE0000D0AF40C20020CE
:104D7000AC5B0010F0B5DE4657464E4645461C007B
:104D80004B00E0B58B461D0084465D44ED00654454
:104D90002E0085B0DC360393336802901700019330
:104DA000002C19D08023DB049A4601239946E02386
:104DB0001B029846D8352000FEF708FB52464301F7
:104DC000134333603B004A46C340134042461343FB
:104DD0002B60631E1C40EED1029A039B94465B44F9
:104DE000DB006344019ADC331A6005B03CBC90469A
:104DF0009946A246AB46F0BDF0B5DE4657464E4654
:104E000045461C004B00E0B58B461D0084465D44C2
:104E1000ED0065442E0085B0DC36039333680290C4
:104E200017000193002C18D08023DB049A4601233D
:104E30009946124BD83598462000FEF7C7FA5246DD
:104E40004301134333603B004A46C340134042468C
:104E500013432B60631E1C40EED1029A039B9446C1
:104E60005B44DB006344019ADC331A6005B03CBC50
:104E700090469946A246AB46F0BDC04680E0000091
:104E8000F0B557464E464546DE468346E0B54800F7
:104E90004618F60009AC5E4425783400DC348146BF
:104EA00020686F427D41844616481E2780466D4229
:104EB000BD434544052B10D9A02040058246A0469D
:104EC000D836013750465401044340460532053B6D
:104ED00004603A403560052BF4D84944C900594470
:104EE0009B0652011A430B000800DC331A6062462D
:104EF000D83005601A603CBC90469946A246AB4645
:104F0000F0BDC0469FE00000F0B501258D4004686B
:104F1000AC434D0004606C18E40004192600C83648
:104F2000002B2AD01F68DC3437605F6877609F6889
:104F3000DB68B76023606B18DB001D008024D03570
:104F4000451964012C4380252D0625602560114CF0
:104F50000D1D8C40846001242700AF403D000831C6
:104F60008C401F2106680A403543056005682C43C4
:104F70000460C018D8300260F0BD80277F0237601F
:104F8000F8277F027760C027DC343F03B7602360D7
:104F9000D1E7C04601010101F0B546468046354BD8
:104FA000D64643445A1E93418022520294464F46AD
:104FB0005B421340304A6344C0B513602F4A0D0072
:104FC0002F49136018008A689043FBD10620FDF733
:104FD000BDFF80268146E90D6802AB0DAA020224BE
:104FE000760006E0914507D312184B413C00B742CA
:104FF00002D0A71C002BF5D080272602361B7F008D
:1050000003E05746361B012F31D07B1E3100484646
:105010009A46FEF70FFA8542F3D2390053466143B0
:105020001B0242461461126840465340FF2212029E
:105030001340802252010243136003680720584046
:10504000CF23034013604246802303209B01243278
:105050001A4310604246171D1F43022348463B6017
:10506000FEF7E8F91CBC90469946A246F0BD210027
:105070000023D6E70040FCBF00E0004000F0004005
:1050800000C0004001230121084A1360084A136050
:10509000084A080093689843FBD1074A11608021B1
:1050A000490013680B42FCD07047C04600E0004046
:1050B00000F0004000C0004000C0044070B59E25D4
:1050C000084C2D012800E560FFF788FCA06000284F
:1050D00004D0002360600560436070BDE0606060E4
:1050E000FBE7C046B0C1002010B5034B01001868B3
:1050F00000F00EF810BDC046E042002010B5034B92
:105100000100186800F078FB10BDC046E0420020A6
:10511000F0B557464546DE464E46E0B50D000B3528
:1051200083B00700162D28D8102900D9C1E000F05F
:10513000A7FA102518230220CE4EF3181A005C6837
:10514000083A944200D160E1032362689A43130055
:10515000E268A168CA6091600122E31859683800CA
:105160000A435A6000F08EFA2000083003B03CBCBD
:1051700090469946A246AB46F0BD07239D4300D515
:1051800097E0A94200D994E000F07AFAF823FF33BF
:105190009D4200D85EE1680A00D18EE0042800D963
:1051A00039E138239846A80980443930C100B14E0E
:1051B00071180839CC68A14218D0032362689A4359
:1051C0001300521B0F2A00DD1DE1002AC0DA032361
:1051D0009C4608E06246636893435A1B0F2A00DD31
:1051E00011E1002AB4DAE468A142F3D13200346953
:1051F0000832944267D00323616899438A460B00C2
:10520000491B0F2900DD12E1726132610029A3DA26
:10521000994A924500D948E1DB08FF3A9910FF3AD4
:105220008A40DB0071689B190A4399687260E360E9
:10523000A1609C60CC60012183109940914248D8C4
:105240000A4205D103239843490004300A42FBD0A7
:1052500003239846C3009946B144CC468246634630
:10526000DC68A44507D1F9E0002A00DB0EE1E46820
:10527000A44500D1F2E04246636893435A1B0F2ACB
:10528000F2DD01208046611905436560A068E5688C
:105290000836C560A8604046F160B16010434860C0
:1052A000CE608E603800E25000F0ECF9200008304B
:1052B0005CE70C2300203B6058E780213F238900F6
:1052C0004020984673E7012172688310994091420B
:1052D000B6D90323B46862689A439046AA4203D3BE
:1052E000531B0F2B00DD80E0644B654A9A469346C2
:1052F0001B681268EB18013200D138E1614A94460C
:1053000063441B0B1B0300930099380000F0E0F985
:1053100003008146013300D1F6E04346E2188242A1
:1053200000D9EFE051464968009B8C4651466344E2
:105330004B60824200D14BE159460968013100D1EE
:105340005DE149468A1AD3185246536007234A46FC
:105350001A40019200D120E108214B4689469B1A50
:1053600099440099484B49449B1A5B1A1B051B0D35
:105370000091380019009B4600F0AAF9431C00D1A7
:105380005AE1534652465B6849465B4453604A467D
:10539000B260801A0122584410434860B44211D0D0
:1053A00041460F2900D827E107200C398143606866
:1053B000024005200A4362606218506090600F2925
:1053C00000D941E15246D26A934201D95246D36292
:1053D0000322B468616891430A005146096B8B420D
:1053E00000D895E051460B6392E001222900134357
:1053F0001143651961603800B5606B6000F042F9D7
:1054000020000830B2E64046F0E6DC680230A342F5
:1054100000D1EBE698E614286ED9542800D9A9E00B
:105420006E239846280B80446F30C100BFE60123ED
:1054300060191D43656070613061C26082601A004E
:1054400053460A4342603800E15000F01BF9200047
:1054500008308BE62B00E80808336DE608239B46EE
:10546000073BDC449B46DA4443465246134200D095
:10547000F5E667E018470020FF0100007C4C0020A3
:10548000104700200F100000081000000122E31850
:10549000596838000A435A60E368A268D3609A608A
:1054A00000F0F0F82000083060E65A0A042A3AD9E1
:1054B000142A00D983E05B23984690445C32D200E2
:1054C00008235B429C46B2189444634699680323C0
:1054D00099468C4559D04B464A689A43524502D961
:1054E00089688C45F7D1CB6872689C466346A16099
:1054F000E3609C60CC609EE65B23984680445C3011
:10550000C10054E6B4427ED00323B46862689A4373
:10551000531B954202D80F2B00DD66E7380000F0E0
:10552000B1F8002022E69A0938239846904439328F
:10553000D200C5E74B461A68083B013891469A42AB
:1055400000D098E043460342F4D173688B43736004
:105550004900994200D9BCE6002904D1B9E60422E9
:1055600094464900E2440B42F9D0504672E61033AB
:105570000093C9E6AA235B00984233D8DD3B9846E6
:10558000E80B80447830C10011E6434601229B10AD
:105590009A4073681A437260A8E7009B38004B4436
:1055A00000931B055B421B0D19009B4600F090F811
:1055B000431C00D0E5E6002300989B46E1E6542A10
:1055C00029D81A0B6E23984690446F32D20077E7A1
:1055D000110500D0B0E60120009AB16842440243B0
:1055E0004A60EFE6254B984220D87C239846A80CC9
:1055F00080447D30C100DAE54B465A608EE75B4659
:105600004A461A60A2E651464968009B8C465146BC
:1056100063444B6090E6AA2149008A421CD8DA0B09
:105620007723984690447832D20049E7FE217E23C2
:1056300089007F209846BAE5009B01989C4600238C
:10564000083860449B469CE621003800083100F091
:10565000D3F853465B68B5E608498A4206D89A0CE7
:105660007C23984690447D32D20029E7FE227E2397
:105670009200984624E773686AE7C0465405000024
:105680007047C0467047C0460022034B1B68A833D2
:1056900018605A607047C046E0420020094B10B5C0
:1056A0001C68094AA83420686168084BFEF7E6FDCB
:1056B00001220023801859412060616048004008A1
:1056C00010BDC046E04200202D7F954C2DF451586E
:1056D000002370B5064C050008002360FDF7F6F9BD
:1056E000431C00D070BD2368002BFBD02B60F9E772
:1056F00000C5002010B5040083070AD00378002BF2
:1057000023D0032202E00378002B1CD0013010428A
:10571000F9D102680E4B0F49D31893430B420FD1B6
:10572000043002680A4BD31893430B4208D104306B
:105730000268074BD31893430B42F1D000E00130CD
:105740000378002BFBD1001B10BD0020FCE7C046F6
:10575000FFFEFEFE80808080F8B50C000600FFF79B
:105760008FFF204FBB685D6803239D431E4B2C1B9E
:105770009C466444240B1D4B013C24039C4207DDE2
:1057800000213000FFF7A4FFBB685B19984204D0EA
:105790003000FFF777FF0020F8BD61423000FFF7CF
:1057A00097FF431C0DD00122BB682D1B15435D6084
:1057B0000F4B30001A68141B1C60FFF763FF0120B9
:1057C000EAE700213000FFF783FFBA68831A0F2B46
:1057D000DEDD08490968401A0549086001210B43CC
:1057E0005360D5E718470020EF0F0000FF0F0000BF
:1057F000804C002010470020F8B5CE4647460500F3
:1058000080B50C1E55D0FFF73BFF210008394F68CB
:10581000012438000323A0430A1856689E43B1466A
:10582000644EB368934229D04B465360D3189C46CC
:105830003C4242D10F68C91B8B68C0199846634629
:105840005F6808239C46B4442740E0456AD043463D
:10585000CC68DC60A360002F32D1012448440443AB
:10586000A0469368544C0F18A34200D17FE0D26841
:10587000DA60936043464B60386025E003004B4498
:105880003C4206D10A68891A88689B18CA68C260B7
:10589000906001221A434A60484AB16012689A42F5
:1058A00004D8474B28001968FFF756FF2800FFF778
:1058B000E9FE0CBC90469946F8BD5F682740CCD005
:1058C000012303434B6008503E4B98421AD9430AC8
:1058D000042B33D88209140039323834D200B2187C
:1058E000083A936803279A4239D05C68BC438442E3
:1058F00033D99B689A42F8D1D368CB608A609960AB
:10590000D160D3E7C008FF3B8210FF3B9340726831
:10591000C000134373608619B368CE608B60B160BA
:10592000D960C3E7002F41D1030090684B44D2688F
:105930001C43C26090604C60CB50B7E7142B07D972
:10594000542B1CD8020B14006F326E34D200C6E701
:105950001C005C335B34DA00C1E71A00CCE701239A
:10596000A410A3407068034373601300C5E7D960B7
:105970009960CB608B6043464B60386096E7AA2203
:105980005200934205D8C20B140078327734D2000B
:10599000A5E70D4A934205D8820C14007D327C3471
:1059A000D2009CE7FE227E24920098E704434C60DC
:1059B00010607BE718470020204700201447002094
:1059C0007C4C0020FF01000054050000F8B5C046E3
:1059D00001B40248844601BC604700BF7D0100203D
:1059E00001B40248844601BC604700BF2102002088
:1059F00001B40248844601BC604700BF2102002078
:105A000001B40248844601BC604700BF2101002068
:105A100001B40248844601BC604700BFD5010020A4
:105A200001B40248844601BC604700BFC1000020A9
:105A3000000000000C0C003333000000000000EFF9
:105A4000000000004C5A001013FF0000A0803060DE
:105A50005060E1A074600170E518E1A0746001700D
:105A6000E918E2A074600170ED18E2A074600170A2
:105A7000F118000053797374656D20636C6F636B6C
:105A8000206F66202575206B487A2063616E6E6FEB
:105A9000742062652065786163746C792061636845
:105AA00069657665640000000400000003000000E2
:105AB0000100000014000000250000002C00000080
:105AC0001200000020000000A4A100001E00000041
:105AD000D0040D11132B3F544C180D0B1F23000045
